S01E00004D6F76696E675F466F7572576865656C5F526F626F742E7372656341
S11300000C946A000C947C000C947C000C94E00426
S11300100C947C000C947C000C947C000C947C006C
S11300200C947C000C947C000C9409050C9432050F
S11300300C947C000C947C000C947C000C947C004C
S11300400C947C000C947C000C947C000C947C003C
S11300500C947C002C033003340338033C0340032A
S1130060440348034C035003540358035C036003E4
S1130070640368036C037003740378037C038003D4
S1130080840388038C039003940398039C03A003C4
S1130090A403A803B603BA03BE03C203C603CA0378
S11300A0CE03D203D603DA03DE03E203E603EA0354
S11300B0EE03F203F603FA03FE03020406040A0441
S11300C00E04120416041A041E04220426042A042C
S11300D02E04320411241FBECFE5D8E0DEBFCDBF0D
S11300E020E0A0E6B0E001C01D92A037B207E1F71E
S11300F00E94FF010C9421080C94000010926000EF
S113010023E042E061E080E00E94E40180E10E949B
S11301107D0181E10E947D0183E10E947D0182E1F4
S11301200E947901089562E085E00E94C60489E096
S11301300E946E0123E042E061E080E00E948101C0
S113014080E10E94750181E10E94750183E10E94B2
S1130150750182E10E9475018EE790E00E94D60449
S113016008950F9389E00E947201813009F0AFC0B5
S113017088EE93E00E94320681E080936000A7C07D
S113018082E10E947D0180E10E94790180916000FA
S1130190882309F4A1C002E323E042E061E080E0A7
S11301A00E94A00188EB9BE00E94320623E042E01B
S11301B061E080E00E94E40180E10E947D0182E12F
S11301C00E94790184EF91E00E94320680916000E0
S11301D0882309F481C00EE123E042E061E080E07D
S11301E00E94C20182E10E947D0183E10E947901A3
S11301F08CED95E00E94320680916000882309F41A
S11302006BC023E042E061E080E00E94E40183E10E
S11302100E947D0182E10E94790184EF91E00E94B5
S1130220320680916000882309F456C023E042E03E
S113023061E080E00E94A00182E10E947D0181E1F1
S11302400E94790180ED97E00E943206809160005F
S1130250882309F441C023E042E061E080E00E9489
S1130260E40181E10E947D0182E10E94790184EF31
S113027091E00E94320680916000882369F123E0B6
S113028042E061E080E00E94C20182E10E947D01BF
S113029083E10E9479018CED95E00E943206809101
S11302A060008823C9F023E042E061E080E00E941E
S11302B0E40183E10E947D0182E10E94790184EFDF
S11302C091E00E94320680916000882329F0809199
S11302D06000813009F454CF0F91089562E00E94C8
S11302E0040208950E943604089560E00E94040206
S11302F0089561E00E941C03089560E00E941C03BD
S113030008950F931F93CF93DF93082F162FD42FA5
S1130310C22F0E94990560E0802F0E94040260E0D1
S1130320812F0E94040260E08D2F0E94040260E08D
S11303308C2F0E940402DF91CF911F910F91089599
S1130340FF920F931F93CF93DF93F82ED62F142F82
S1130350C22F802F0E94AD0561E08F2D0E941C03E7
S113036061E0812F0E941C0360E08D2F0E941C031A
S113037060E08C2F0E941C03DF91CF911F910F919D
S1130380FF900895FF920F931F93CF93DF93F82E5E
S1130390D62F142FC22F802F0E94AD0560E08F2D21
S11303A00E941C0361E0812F0E941C0361E08D2FD9
S11303B00E941C0360E08C2F0E941C03DF91CF91EC
S11303C01F910F91FF9008951F93CF93DF93D62F22
S11303D0142FC22F60E00E941C0360E0812F0E9452
S11303E01C0360E08D2F0E941C0360E08C2F0E9490
S11303F01C030E942306DF91CF911F9108950E9450
S113040093000E94B100FDCF613009F460C020F078
S1130410623009F4B7C00895883098F44AB38770FD
S113042021E030E0B90102C0660F771F8A95E2F738
S1130430CB01942F982B9ABB9BB3809589238BBBBC
S1130440089598EF980F983098F447B3877021E097
S113045030E0B90102C0660F771F8A95E2F7CB013D
S1130460942F982B97BB98B38095892388BB0895C4
S113047090EF980F983098F444B3877021E030E0FF
S1130480B90102C0660F771F8A95E2F7CB01942F5A
S1130490982B94BB95B38095892385BB089598EEDA
S11304A0980F983008F0C7C041B3877021E030E05E
S11304B0B90102C0660F771F8A95E2F7CB01942F2A
S11304C0982B91BB92B38095892382BB0895883081
S11304D098F44AB3877021E030E0B90102C0660F96
S11304E0771F8A95E2F7CB018095942F98239ABBC6
S11304F09BB389238BBB089598EF980F983098F499
S113050047B3877021E030E0B90102C0660F771F5E
S11305108A95E2F7CB018095942F982397BB98B3E3
S1130520892388BB089590EF980F983098F444B3CA
S1130530877021E030E0B90102C0660F771F8A9509
S1130540E2F7CB018095942F982394BB95B389232C
S113055085BB089598EE980F983008F06CC041B3AD
S1130560877021E030E0B90102C0660F771F8A95D9
S1130570E2F7CB018095942F982391BB92B3892302
S113058082BB0895883098F44AB3877021E030E044
S1130590B90102C0660F771F8A95E2F7CB01962F47
S11305A0909594239ABB9BB3892B8BBB089598EFAA
S11305B0980F983098F447B3877021E030E0B90180
S11305C002C0660F771F8A95E2F7CB01962F9095AC
S11305D0942397BB98B3892B88BB089590EF980F09
S11305E0983098F444B3877021E030E0B90102C038
S11305F0660F771F8A95E2F7CB01962F9095942387
S113060094BB95B3892B85BB089598EE980F9830C9
S113061090F441B3877021E030E0B90102C0660F65
S1130620771F8A95E2F7CB01962F9095942391BB7F
S113063092B3892B82BB0895662309F48DC061307F
S113064009F013C190E08032910508F00EC1FC015D
S1130650E65DFF4F0C941B088BB381608BBB089540
S11306608BB382608BBB08958BB384608BBB08957E
S11306708BB388608BBB08958BB380618BBB08956B
S11306808BB380628BBB08958BB380648BBB08955E
S11306908BB380688BBB089588B3816088BB089551
S11306A088B3826088BB089588B3846088BB08954A
S11306B088B3886088BB089588B3806188BB089537
S11306C088B3806288BB089588B3806488BB08952A
S11306D088B3806888BB089585B3816085BB08951D
S11306E085B3826085BB089585B3846085BB089516
S11306F085B3886085BB089585B3806185BB089503
S113070085B3806285BB089585B3806485BB0895F5
S113071084B3806884BB089582B3816082BB0895EA
S113072082B3826082BB089582B3846082BB0895E1
S113073082B3886082BB089582B3806182BB0895CE
S113074082B3806282BB089582B3806482BB0895C1
S113075082B3806882BB089590E08032910508F0EE
S113076084C0FC01E65BFF4F0C941B088BB38E7FA7
S11307708BBB08958BB38D7F8BBB08958BB38B7F1D
S11307808BBB08958BB3877F8BBB08958BB38F7E10
S11307908BBB08958BB38F7D8BBB08958BB38F7BFD
S11307A08BBB08958BB38F778BBB089588B38E7FF3
S11307B088BB089588B38D7F88BB089588B38B7FE9
S11307C088BB089588B3877F88BB089588B38F7EDC
S11307D088BB089588B38F7D88BB089588B38F7BC9
S11307E088BB089588B38F7788BB089585B38E7FBF
S11307F085BB089585B38D7F85BB089585B38B7FB5
S113080085BB089585B3877F85BB089585B38F7EA7
S113081085BB089585B38F7D85BB089585B38F7B94
S113082085BB089585B38F7785BB089582B38E7F8A
S113083082BB089582B38D7F82BB089582B38B7F80
S113084082BB089582B3877F82BB089582B38F7E73
S113085082BB089582B38F7D82BB089582B38F7B60
S113086082BB089582B38F7782BB0895883060F489
S113087099B3282F2770892F90E002C0959587950A
S11308802A95E2F78170089598EF980F983060F4F4
S113089096B3282F2770892F90E002C095958795ED
S11308A02A95E2F78170089590EF980F983060F4DC
S11308B093B3282F2770892F90E002C095958795D0
S11308C02A95E2F78170089598EE980F983060F4B5
S11308D090B3282F2770892F90E002C095958795B3
S11308E02A95E2F78170089580E008958FB78068B3
S11308F08FBF0895863029F08730A9F0853081F5BF
S113090024C0623039F485B7826085BF85B78160C1
S113091085BF0895613021F585B7826085BF85B7AD
S11309208E7F85BF0895623039F485B7886085BFAE
S113093085B7846085BF0895613091F485B7886078
S113094085BF85B78B7F85BF0895613021F484B757
S1130950806484BF0895611103C084B78B7F84BF12
S11309600895863039F48BB780648BBF8AB780646E
S11309708ABF0895873021F48BB780688BBF0895B0
S1130980853019F48BB780628BBF0895CF93DF93C2
S1130990C82FD62F0E9476046D2F8C2F0E947A04C4
S11309A08C2F0E94B104DF91CF910895909366003B
S11309B08093650008959093620080936100089588
S11309C01F920F920FB60F9211242F933F934F93C0
S11309D05F936F937F938F939F93AF93BF93EF93A3
S11309E0FF93E0916500F0916600309709F0099556
S11309F0FF91EF91BF91AF919F918F917F916F91F3
S1130A005F914F913F912F910F900FBE0F901F90C8
S1130A1018951F920F920FB60F9211242F933F93A4
S1130A204F935F936F937F938F939F93AF93BF93F2
S1130A30EF93FF93E0916300F0916400309709F025
S1130A400995FF91EF91BF91AF919F918F917F9104
S1130A506F915F914F913F912F910F900FBE0F9027
S1130A601F9018951F920F920FB60F9211242F9377
S1130A703F934F935F936F937F938F939F93AF9322
S1130A80BF93EF93FF93E0916100F0916200309780
S1130A9009F00995FF91EF91BF91AF919F918F91CB
S1130AA07F916F915F914F913F912F910F900FBE66
S1130AB00F901F9018950F931F93809167008F5F7D
S1130AC08093670090E0A0E0B0E04091680050910E
S1130AD0690060916A0070916B0084179507A607FE
S1130AE0B70721F488B3806188BB1EC000916800F9
S1130AF01091690020916A0030916B0040916C0064
S1130B0050916D0060916E0070916F00400F511F05
S1130B10621F731F84179507A607B70729F488B3C4
S1130B208F7E88BB1092670086E082BF1F910F9171
S1130B30089587B3886087BB83B713BE83B783BF29
S1130B408FB780688FBF89B7816089BF86E082BF15
S1130B508BE595E00E94DB040895CF92DF92EF923B
S1130B60FF92CF93C82F682F70E080E090E00E943E
S1130B70FE0620E030E048EC52E40E945D062AE0E4
S1130B8037ED43E25BE30E948C0720E030E04AE764
S1130B9054E40E948C0720E030E04AE754E40E94C9
S1130BA08C070E94CF060F2EFAEFCF2ED12CE12C0A
S1130BB0F12CF02DA70196010E94F90720936C00F7
S1130BC030936D0040936E0050936F0064E670E0C4
S1130BD06C1B7109072E000C880B990B0E940007EF
S1130BE020E030E048EC52E40E945D062AE037ED54
S1130BF043E25BE30E948C0720E030E04AE754E4E0
S1130C000E948C0720E030E04AE754E40E948C07FD
S1130C100E94CF06A70196010E94F907209368005D
S1130C203093690040936A0050936B001092670000
S1130C3086E082BF83B7826083BFCF91FF90EF903D
S1130C40DF90CF90089513BE089595B5892385BD8F
S1130C5064BD089595B5892B85BD089584BD089517
S1130C6015BC0895EF92FF920F931F93CF937C01CD
S1130C7067E087EB0E94250682E00E942A0600E0D6
S1130C8010E010C008B606FEFDCF87E00E942E06D5
S1130C9088B7806488BFCF5F01C0C0E0C43090F3E0
S1130CA00F5F1F4F0E151F05C0F30E943006CF9132
S1130CB01F910F91FF90EF9008950E9471060C947C
S1130CC052070E944B0758F00E94440740F029F451
S1130CD05F3F29F00C943B0751110C9486070C9448
S1130CE041070E94630768F39923B1F3552391F3F5
S1130CF0951B550BBB27AA2762177307840738F087
S1130D009F5F5F4F220F331F441FAA1FA9F335D0E3
S1130D100E2E3AF0E0E832D091505040E695001C97
S1130D20CAF72BD0FE2F29D0660F771F881FBB1F51
S1130D30261737074807AB07B0E809F0BB0B802D2F
S1130D40BF01FF2793585F4F3AF09E3F510578F05B
S1130D500C943B070C9486075F3FE4F3983ED4F36E
S1130D60869577956795B795F7959F5FC9F7880F2F
S1130D70911D9695879597F90895E1E0660F771F81
S1130D80881FBB1F621773078407BA0720F0621B12
S1130D90730B840BBA0BEE1F88F7E09508950E943D
S1130DA06B0788F09F5798F0B92F9927B751B0F087
S1130DB0E1F0660F771F881F991F1AF0BA95C9F7DB
S1130DC014C0B13091F00E948507B1E008950C94ED
S1130DD08507672F782F8827B85F39F0B93FCCF3A0
S1130DE0869577956795B395D9F73EF49095809558
S1130DF0709561957F4F8F4F9F4F0895E89409C078
S1130E0097FB3EF490958095709561957F4F8F4F39
S1130E109F4F9923A9F0F92F96E9BB279395F6954F
S1130E20879577956795B795F111F8CFFAF4BB0FCD
S1130E3011F460FF1BC06F5F7F4F8F4F9F4F16C031
S1130E40882311F096E911C0772321F09EE8872FBB
S1130E50762F05C0662371F096E8862F70E060E077
S1130E602AF09A95660F771F881FDAF7880F9695F0
S1130E70879597F9089597F99F6780E870E060E097
S1130E8008959FEF80EC089500240A94161617061F
S1130E9018060906089500240A9412161306140667
S1130EA005060895092E0394000C11F4882352F0CA
S1130EB0BB0F40F4BF2B11F460FF04C06F5F7F4F82
S1130EC08F4F9F4F089557FD9058440F551F59F069
S1130ED05F3F71F04795880F97FB991F61F09F3F23
S1130EE079F087950895121613061406551FF2CF4C
S1130EF04695F1DF08C0161617061806991FF1CF9C
S1130F0086957105610508940895E894BB276627C2
S1130F107727CB0197F908950E949F070C945207F5
S1130F200E94440738F00E944B0720F0952311F0EB
S1130F300C943B070C94410711240C9486070E94DF
S1130F40630770F3959FC1F3950F50E0551F629F9F
S1130F50F001729FBB27F00DB11D639FAA27F00D0E
S1130F60B11DAA1F649F6627B00DA11D661F829F35
S1130F702227B00DA11D621F739FB00DA11D621F1A
S1130F80839FA00D611D221F749F3327A00D611D37
S1130F90231F849F600D211D822F762F6A2F112419
S1130FA09F5750409AF0F1F088234AF0EE0FFF1F4C
S1130FB0BB1F661F771F881F91505040A9F79E3FA3
S1130FC0510580F00C943B070C9486075F3FE4F3D3
S1130FD0983ED4F3869577956795B795F795E795F9
S1130FE09F5FC1F7FE2B880F911D9695879597F902
S1130FF00895A1E21A2EAA1BBB1BFD010DC0AA1F56
S1131000BB1FEE1FFF1FA217B307E407F50720F06D
S1131010A21BB30BE40BF50B661F771F881F991FE8
S11310201A9469F760957095809590959B01AC0131
S1131030BD01CF010895EE0FFF1F0590F491E02D3F
S10910400994F894FFCFAF
S9030000FC
